:020000040800F2
:100000007008002005010008E11500086F0F0008C6
:1000100079110008950A0008072700080000000071
:10002000000000000000000000000000551E000855
:10003000150B000800000000D1180008F91F000887
:100040001F0100081F0100081F0100081F01000810
:100050001F0100081F0100081F0100081F01000800
:100060001F0100081F0100081F0100081F010008F0
:100070001F0100081F0100081F0100081F010008E0
:100080001F0100081F0100081F0100081F010008D0
:100090001F0100081F0100081F010008D50C0008FF
:1000A0001F010008C92000081F0100081F010008E7
:1000B000FD200008AD210008A12200081F01000852
:1000C0001F0100081F0100081F0100081F01000890
:1000D0001F0100081F0100081F010008D5240008A7
:1000E000750B00081F0100081F010008DFF810D081
:1000F00000F07AFB004800471D310008AFF3008094
:10010000700800200648804706480047FEE7FEE7E3
:10011000FEE7FEE7FEE7FEE7FEE7FEE7FEE7FEE7B7
:10012000FD1F0008ED00000880EA010210B502F092
:100130000043400022D04A001FD0010E01EB1261A3
:10014000C0F35600C2F3560240F4000042F400022D
:10015000A0FB022000047F39140400D0401C50EAA8
:10016000124001D44000491EC2B20C0604EBD0106C
:10017000401C4008802A02D003E0002010BD20F07F
:100180000100002900DA0020184310BD2DE9FE4FC0
:10019000804681EA0300C00F0C46009021F0004128
:1001A00023F00045B8EB0200A94105D240462146A4
:1001B00090461C460B46024623F00040104347D0B1
:1001C000270DC7F30A00C3F30A510290401A0190A9
:1001D00040286BDAC3F3130040F4801B009892466A
:1001E00020B10023D2EB030A63EB0B0B01985946B5
:1001F000C0F14002504600F01AFA06460D4650463D
:100200005946019A00F032FA10EB080061410024CF
:1002100087EA115284EAE7731A4340D0009A62B326
:10022000019A012A4FEA075215DC001B61EB02011B
:100230004FF0004202EA0752CDE90042001C41F5AE
:10024000801132462B4600F069FA03B0BDE8F08F0A
:1002500040462146F9E7001B61EB0201001C41F515
:10026000801300185B412018A2F5001747EB03012B
:1002700040EAD570B6196D4111E06D084FEA3606B7
:1002800045EAC0754FEA0752001B61EB0201001CF2
:1002900041F5801149084FEA3000001951413246BA
:1002A0002B4603B0BDE8F04F00F029BA00980122B8
:1002B00040000023D0EB020263EBE073009821467C
:1002C0004FEAE074B8EB000061EB0401E9E783F06A
:1002D00000435BE781F0004158E72DE9FE4F81EADA
:1002E000030404F0004421F0004100944FF0000B9F
:1002F00023F0004350EA01045ED052EA03045BD0CD
:10030000C3F30A54C1F30A552C44A4F2F334019404
:10031000A0FB0254C1F3130141F48011C3F3130392
:1003200043F4801301FB024400FB034E840A970A46
:1003300044EA815447EA8357A4FB076802958D0A73
:1003400005FB07854FEA932C04FB0C542705029DFF
:100350004FEA065847EA1637B5EB08056EEB070C6F
:10036000870E920E47EA811742EA8312A7FB020129
:10037000B6EB0B0164EB00042B0D43EA0C335E1863
:1003800044EB1C50DA465146E7FB0201C5F3130467
:100390004FEA0B3343EA14534FEA0432019C43EA19
:1003A0000603A4F10C040294009CCDE900B400F013
:1003B000B5F903B0BDE8F08F00200146F9E72DE95B
:1003C000F04D81EA030404F0004B21F0004514468F
:1003D0004FF0000A23F0004150EA050220D054EA11
:1003E00001021DD0C5F30A570246C5F31303C1F33A
:1003F0001300C1F30A5640F4801543F48013A7EBB1
:100400000608101BD64608F2FD3873EB050002D330
:1004100008F1010801E092185B41B8F1000F03DA1E
:1004200000200146BDE8F08D00204FF48011064603
:1004300084460EE0171B73EB050705D3121B63EB15
:10044000050306434CEA010C49084FEA30009218B4
:100450005B4150EA0107EDD152EA030012D082EA73
:10046000040083EA0501084305D0101BAB4106D206
:100470000122002306E000224FF0004302E06FF06B
:10048000010253101AEB06004CEB085110EB0A0066
:1004900041EB0B01BDE8F04D00F031B90EB540F273
:1004A000334102910021CDE900110A460B4600F0CC
:1004B00035F903B000BD20F00040C10DC0F31600B7
:1004C00040F400007F2901DA00207047962903DC00
:1004D000C1F19601C8407047963988407047C1F312
:1004E0000A5210B5C1F3130140F2FF3341F48011F9
:1004F0009A4201DA002010BD40F233439A42A2F240
:10050000334203DC524200F0A1F810BD904010BD10
:1005100000F0004230F000400AD0C10D01F56071DA
:10052000C0F3160042EA0151C20840071143704768
:10053000002001467047000030B5041E71F1000430
:1005400004DB4FF00044404264EB0101141E73F1E0
:10055000000405DB1C464FF00043524263EB0403EA
:10056000994208BF904230BD01F0004330B421F001
:10057000004150EA010206D00A0DA2F56072C1F3F3
:100580001301002A02DC30BC00207047440F44EA0B
:10059000C104C100E01830BC00EBC25000F078B8D4
:1005A00030B50B46014600202022012409E021FA43
:1005B00002F59D4205D303FA02F5491B04FA02F540
:1005C0002844151EA2F10102F1DC30BD2DE9F05FD7
:1005D0000546002092469B468846064681464024B2
:1005E0001BE0284641464746224600F02FF8534676
:1005F0005A46C01A914110D311461846224600F0BF
:1006000016F82D1A67EB01084F46224601200021FB
:1006100000F00DF817EB00094E41201EA4F1010473
:10062000DFDC484631462A464346BDE8F09F202A93
:1006300004DB203A00FA02F1002070479140C2F139
:10064000200320FA03F3194390407047202A04DB6B
:10065000203A21FA02F00021704721FA02F3D0403B
:10066000C2F120029140084319467047202A06DB58
:10067000CB17203A41FA02F043EAE07306E041FA70
:1006800002F3D040C2F1200291400843194670475E
:100690000029A8BF7047401C490008BF20F0010096
:1006A000704710B4B0FA80FC00FA0CF050EA010474
:1006B00004BF10BC704749B1CCF1200421FA04F406
:1006C00011FA0CF118BF012121430843A3EB0C01DF
:1006D000CB1D4FEA00614FEA102042BF002010BC42
:1006E000704700EBC35010440029A4BF10BC7047F2
:1006F000401C490008BF20F0010010BC704710B535
:10070000141E73F1000408DA401C41F10001921834
:100710005B411A4301D120F0010010BD2DE9F04DDD
:1007200092469B4611B1B1FA81F202E0B0FA80F232
:1007300020329046FFF77BFF04460F4640EA0A004E
:1007400041EA0B0153465A46084313D0114653EA77
:10075000010019D0C8F140025046FFF777FF054667
:100760000E46504659464246FFF761FF084305D002
:10077000012004E020463946BDE8F08D0020054305
:1007800046EAE0762C4337430A986305E40AA0EB77
:1007900008000022FD0A44EA47540A3002D500202E
:1007A0000146E9E7010510196941DDE9084500192D
:1007B0006941BDE8F04DA2E7C1F30A52C1F313014C
:1007C00040F2FF3341F480119A4202DA00200146E0
:1007D000704740F233439A42A2F2334202DC524263
:1007E000FFF734BFFFF723BF064C074D06E0E06874
:1007F00040F0010394E8070098471034AC42F6D368
:10080000FFF778FCD8320008F832000821B182687E
:1008100042F00102826003E0826822F001028260FD
:100820007047014600208A6802F004020AB10120E4
:1008300000E0002070470146C86C80B27047024655
:10084000002013680B400BB1012000E0002070472E
:10085000014600208A6802F008020AB1012000E087
:100860000020704730B502460020002350680F4C2E
:1008700020400D790C6844EA0524204350609068BC
:100880000B4C2040D1E902542C434D7944EA4504F5
:1008900020439060D06A20F470000C7C641EE4B2A7
:1008A000234340EA0350D06230BD0000FFFEF0FF5A
:1008B000FDF7F1FFF0B504460D4600200021092D9B
:1008C00011DDE068A5F10A0606EB4607072606FAE1
:1008D00007F18843A5F10A0606EB460603FA06F17E
:1008E0000843E0600CE0206905EB4507072606FA9F
:1008F00007F1884305EB450603FA06F1084320613A
:10090000072A0FDA606B561E06EB86071F2606FACB
:1009100007F18843561E06EB860605FA06F10843E2
:10092000606322E00D2A0FDA206BD61F06EB8607E4
:100930001F2606FA07F18843D61F06EB860605FA3E
:1009400006F10843206310E0E06AA2F10D0606EB11
:1009500086071F2606FA07F18843A2F10D0606EB6B
:10096000860605FA06F10843E062F0BD816841F0B1
:1009700008018160704721B1826842F4A002826060
:1009800003E0826822F4A00282607047816841F02F
:10099000040181607047000010B501210648FFF78F
:1009A000EAFF00BF02210448FFF749FF0028F9D001
:1009B0000148FFF740FF10BD0024014010B50120A1
:1009C00001F03AF8002001F037F810BD08B50146F3
:1009D0000020009003480090009808440090009880
:1009E000008808BD006C004008B500220092044A4F
:1009F0000092009A02440092009A116008BD000023
:100A0000006C004008B50121082001F005F8102015
:100A10008DF8030003208DF802000220ADF80000DD
:100A20006946044800F006FA0221024800F098FAEC
:100A300008BD0000000C01402DE9F04704460D46BA
:100A400004B10DB9BDE8F0871048B0FBF4F67708A3
:100A500004FB05F04FF47A71B0FBF1F84FF0000998
:100A60000FE002210A4800F079FA384600F06BF8EE
:100A70000221074800F074FA384600F064F809F1E2
:100A80000109C145EDD300BFDCE7000040420F0083
:100A9000000C014000BFFEE710B500F0E5FB10BD03
:100AA00070B506460C46154600F06CFC902000F030
:100AB0003FFC00F01FFC304600F03AFC00F01AFC4E
:100AC000204600F035FC00F015FC284600F030FC14
:100AD00000F010FC00F072FC70BD70B506460C46CC
:100AE000154600F05DFC902000F037FC00F011FC92
:100AF000304600F032FC00F00CFC204600F02DFCEB
:100B000000F007FC284600F028FC00F002FC00F092
:100B100060FC70BD704700B5034603E04FF47A7087
:100B200000F011F8181EA3F10103F7D100BD10B5B4
:100B3000044603E04FF47A70FFF7EDFF201EA4F1A6
:100B40000104F7D110BD00EBC001C9004FF0E02255
:100B50005161002191610521116100BF4FF0E02139
:100B6000096901F480310029F8D004214FF0E02216
:100B70001161704710B54FF4805000F0DDF8012886
:100B800012D101F0CFFA00BF47480088C828FBDD2A
:100B900000204549088045A001F024FE01F0A6FA96
:100BA0004FF4805000F0C2F84FF4005000F0C4F849
:100BB000012812D101F0B6FA00BF3B480088C828CE
:100BC000FBDD0020384908803CA001F00BFE01F05D
:100BD0008DFA4FF4005000F0A9F84FF4804000F077
:100BE000ABF8012812D101F09DFA00BF2E48008811
:100BF000C828FBDD00202C49088030A001F0F2FD60
:100C000001F074FA4FF4804000F090F84FF4004087
:100C100000F092F8012822D101F084FA00BF2248A6
:100C20000088C828FBDD29480078012804D0022864
:100C300005D0032809D105E000F0A0FA05E000F096
:100C4000C9FA02E000F0E4FA00BF00BF0020164934
:100C5000088001F04BFA4FF4004000F067F84FF4C1
:100C6000806000F069F801281DD101F05BFA00BF37
:100C70000D4800883228FBDD4FF48061144800F0F5
:100C800064F920B94FF40061114800F067F90020C1
:100C90000549088001F02AFA6420FFF73CFF4FF471
:100CA000806000F043F810BD18000020636C696399
:100CB0006B2062302C31FFFFFF000000636C696322
:100CC0006B2062312C31FFFFFF0000003400002058
:100CD0000010014010B54FF4807000F02DF801288D
:100CE00017D101F01FFA00BF0A480088C828FBDDB1
:100CF0000120094908700949088009A001F072FD26
:100D000000200449088001F0F1F94FF4807000F0F0
:100D10000DF810BD1800002015000020380000203C
:100D2000706167652031FFFFFF0000000149086026
:100D30007047000014040140014600200022074BC8
:100D40001B6803EA0102054B14331B680B4013B107
:100D50000AB1012000E000207047000000040140BB
:100D6000002123498279002A3AD00A461268036892
:100D70009A430B461A600A1D126803689A430B1DBA
:100D80001A60027911440A6803681A430A60184A13
:100D90000832126803689A43154B08331A601A1D0B
:100DA000126803689A43124B0C331A604279102A76
:100DB0000ED11A1F126803681A430D4B08331A60CC
:100DC0001A1D126803681A43094B0C331A600DE0B0
:100DD0000749427911440A6803681A430A6005E02A
:100DE000027911440A6803689A430A607047000058
:100DF0000004014030B500228B071C0F0F2303FABB
:100E000004F20B4B8C1053F824309343084C8D1094
:100E100044F8253023468C1053F824308C07240FD7
:100E200000FA04F42343024C8D1044F8253030BD01
:100E3000080001402DE9F04102460025002600206F
:100E400000230024002791F803C00CF00F0591F84F
:100E500003C00CF0100CBCF1000F03D091F802C0DD
:100E60004CEA050591F800C0BCF1000F31D01468C0
:100E700000202BE04FF0010C0CFA00F3B1F800C099
:100E80000CEA03069E4220D183004FF00F0C0CFAAF
:100E900003F7BC4305FA03FC4CEA040491F803C0D1
:100EA000BCF1280F06D14FF0010C0CFA00FCC2F87F
:100EB00014C00AE091F803C0BCF1480F05D14FF00F
:100EC000010C0CFA00FCC2F810C0401C0828D1D359
:100ED0001460B1F800C0BCF1FF0F34DD546800208D
:100EE0002EE000F1080C4FF0010808FA0CF3B1F8FD
:100EF00000C00CEA03069E4221D183004FF00F0C84
:100F00000CFA03F7BC4305FA03FC4CEA040491F81D
:100F100003C0BCF1280F05D100F1080C08FA0CF849
:100F2000C2F8148091F803C0BCF1480F07D100F15A
:100F3000080C4FF0010808FA0CF8C2F81080401CA9
:100F40000828CED35460BDE8F081024600209368A3
:100F50000B400BB1012000E0002070474161704759
:100F6000016170470AB1016100E04161704700BF53
:100F7000FEE70146CA1701EB92729210A1EB8202C2
:100F800092B9642091FBF0F200FB121050B94FF4BB
:100F9000C87091FBF0F200FB121008B901207047F5
:100FA0000020FCE70120FAE70020F8E71FB5012147
:100FB000042000F031FD0121082000F02DFD012169
:100FC000102000F029FD0121084600F025FD282011
:100FD0008DF80F004FF47040ADF80C0003208DF831
:100FE0000E0003A94148FFF725FF28208DF80F00C8
:100FF0004FF48070ADF80C0003208DF80E0003A9AB
:101000003B48FFF717FF48208DF80F004FF4806032
:10101000ADF80C0003208DF80E0003A93548FFF74A
:1010200009FF10208DF80F00C001ADF80C0003205F
:101030008DF80E0003A92F48FFF7FCFE0C210120BC
:10104000FFF7D8FE0D210120FFF7D4FE0E2101206D
:10105000FFF7D0FE0F210120FFF7CCFE0821002072
:10106000FFF7C8FE0A210220FFF7C4FE4FF47140CB
:10107000019001208DF80A0000208DF8080008205A
:101080008DF8090001A8FFF76BFE4FF48060019016
:1010900001208DF80A0000208DF808000C208DF842
:1010A000090001A8FFF75CFE4FF4A06000F0D2FA3F
:1010B00028208DF8000001208DF8030002208DF813
:1010C00001008DF80200684600F08CFA17208DF8B8
:1010D000000001208DF8030002208DF801008DF83A
:1010E0000200684600F07EFA1FBD0000000C0140BF
:1010F000000801400010014070B505460649284629
:10110000FFF712F80646FFF7D6F984B2E2B22112D1
:101110002120FFF7C5FC70BD0050304670B5054674
:1011200006492846FFF700F80646FFF7C4F984B2DF
:10113000E2B221122120FFF7D0FC70BD00503046F2
:101140002DE9F04704462046FFF7A8F90746084A6C
:10115000084BFFF7C2F80546FFF706FA81464846F6
:10116000FFF7CAFF4846FFF7D9FFBDE8F087000048
:1011700084B9DDCB7D72343F00BFFEE710B501209E
:101180000E4908700E4801F0C1FA0D4801F0F4FA5A
:1011900050200C490870E0220121D120FFF780FC8B
:1011A000E0220121D120FFF798FC01F033F801F093
:1011B000CFF805A001F016FB10BD000021000020B3
:1011C00052499D3925000020706167652034FFFF7A
:1011D000FF00000010B50220084908700020FFF74A
:1011E000AFFF01F0B5F8064801F090FA044801F0AD
:1011F000C3FA04A001F0F6FA10BD0000210000209F
:101200003480B73A706167652034FFFFFF0000004B
:1012100010B503200E49087050200E490870E022D6
:101220000121D120FFF73CFCE0220121D120FFF772
:1012300054FC094801F06AFA074801F09DFA00F0F1
:10124000E9FF01F085F805A001F0CCFA10BD00001F
:1012500021000020250000203480B73A70616765C6
:101260002034FFFFFF00000008B50121042000F03A
:10127000D3FB0121082000F0CFFB14208DF80300E0
:101280000620ADF8000003208DF8020069460948E9
:10129000FFF7D0FDC020ADF8000069460648FFF713
:1012A000C9FD06210348FFF75BFEC0210248FFF796
:1012B00057FE08BD00080140000C014010B5042194
:1012C0000448FFF742FE04460A20FFF73CFC204694
:1012D00010BD00000008014010B580210448FFF750
:1012E00034FE04460A20FFF72EFC204610BD000005
:1012F000000C014010B5012000F092F8012000F030
:1013000073F8FFF7DBFF0446002000F06DF820467D
:1013100010BD10B5012000F091F8012000F072F826
:10132000FFF7DAFF0446002000F06CF8204610BDFD
:1013300070B5054600240DE08021214101EA050039
:1013400000F06EF8012000F04FF8002000F04CF89B
:10135000601CC4B2082CEFDB70BD70B505460024DC
:101360000DE08021214101EA050000F067F801202D
:1013700000F048F8002000F045F8601CC4B2082CCA
:10138000EFDB70BD10B5012000F04AF8012000F03D
:101390002BF8002000F044F8002000F025F810BDE4
:1013A00010B5012000F04AF8012000F02BF80020D1
:1013B00000F044F8002000F025F810BD10B5002022
:1013C00000F02EF8012000F00FF8012000F028F8BE
:1013D00010BD10B5002000F031F8012000F012F827
:1013E000012000F02BF810BD10B504462246022162
:1013F0000348FFF7B7FD0A20FFF7A5FB10BD00006B
:101400000008014010B50446224640210348FFF77A
:10141000A9FD0A20FFF797FB10BD0000000C01405A
:1014200010B50446224604210348FFF79BFD0A201D
:10143000FFF789FB10BD00000008014010B504460D
:10144000224680210348FFF78DFD0A20FFF77BFB32
:1014500010BD0000000C014008B50121042000F07F
:10146000DBFA0121102000F0D7FA10208DF80300DC
:1014700003208DF8020041F2B000ADF8000069468B
:101480000E48FFF7D7FC10208DF8030003208DF8DD
:1014900002000002ADF8000069460948FFF7CAFCE7
:1014A000012000F05BF8002000F084F8012000F03B
:1014B0005FF8002000F088F808BD00000008014037
:1014C0000010014070B50546002400BF13E08021E4
:1014D000214101EA050000F057F8012000F06AF808
:1014E0000220FFF730FB002000F064F80220FFF735
:1014F0002AFB601CC4B2082CE9DB70BD70B5054640
:10150000002400BF13E08021214101EA050000F022
:1015100045F8012000F058F80220FFF714FB0020E6
:1015200000F052F80220FFF70EFB601CC4B2082C3A
:10153000E9DB70BD10B5002000F010F810BD10B54B
:10154000002000F015F810BD10B5012000F006F8DD
:1015500010BD10B5012000F00BF810BD10B5044609
:10156000224610210148FFF7FDFC10BD0008014094
:1015700010B5044622464FF400710248FFF7F2FC12
:1015800010BD00000010014010B504462246802125
:101590000148FFF7E7FC10BD0008014010B5044604
:1015A00022464FF480710248FFF7DCFC10BD0000BA
:1015B0000010014010B50446224620210148FFF7E3
:1015C000D1FC10BD0008014010B5044622464FF47E
:1015D00080510248FFF7C6FC10BD00000008014022
:1015E0007047000070B5002100230F22C47804B3B7
:1015F000154C246804F4E064C4F5E064210AC1F1E8
:101600000403CA40447804FA03F184781440214367
:1016100009010E4C0678A155047804F01F05012439
:10162000AC4005786D11AD0005F1E025C5F800412D
:1016300009E0047804F01F050124AC40044D06784D
:10164000761145F8264070BD0CED00E000E400E0A6
:1016500080E100E002490143024A11607047000046
:101660000000FA050CED00E000200CE0002106E08F
:101670000022064B03EBC0135A544A1CD1B28029F6
:10168000F6DB421CD0B20828F0DB70476C0000206B
:1016900038B5002406E0002500E06D1CB5F57A7F22
:1016A000FBD3641CB4F57A7FF5D30121082000F048
:1016B000B3F914208DF8030003208DF802004FF4D5
:1016C0008070ADF8000069460848FFF7B3FB4FF49F
:1016D0000070ADF8000069460448FFF7ABFB01203D
:1016E00000F0B0F8012000F0B9F838BD000C01405E
:1016F00070B50546002411E080212141294009B13F
:10170000012100E00021084600F0A8F8012000F0C7
:1017100099F8002000F096F8601CC4B2082CEBDBAE
:10172000012000F08FF8002000F08CF870BD10B59B
:10173000012000F093F8012000F084F8002000F070
:101740008DF8002000F07EF810BD10B5002000F0EC
:1017500085F8012000F076F8012000F07FF810BD38
:1017600010B5FFF795FFAE2000F084F8D52000F00B
:1017700081F8802000F07EF8A82000F07BF83F2060
:1017800000F078F8D32000F075F8002000F072F82F
:10179000402000F06FF8A12000F06CF8C82000F0A5
:1017A00069F8DA2000F066F8122000F063F8812072
:1017B00000F060F8CF2000F05DF8D92000F05AF872
:1017C000F12000F057F8DB2000F054F8302000F052
:1017D00051F8A42000F04EF8A62000F04BF88D2020
:1017E00000F048F8142000F045F8AF2000F042F86F
:1017F000FFF73AFF00F012F810BD70B505460C4631
:1018000045F0B00000F036F8102141EA141000F065
:1018100031F804F00F0000F02DF870BD10B5002471
:101820000BE000212046FFF7E8FF054901EBC4105B
:10183000802100F02FF8601CC4B2082CF1DB10BD31
:101840006C00002010B5044622464FF48071024817
:10185000FFF788FB10BD0000000C014010B50446E6
:1018600022464FF400710248FFF77CFB10BD0000D8
:10187000000C014010B50446FFF759FF7820FFF730
:1018800037FF0020FFF734FF2046FFF731FFFFF757
:101890005CFF10BD70B505460E46FFF748FF782087
:1018A000FFF726FF4020FFF723FF002404E0285D18
:1018B000FFF71EFF601CC4B2B442F8DBFFF745FF20
:1018C00070BD0000014908627047000000000E4230
:1018D000704700002DE9F84FFFF75EF80090FEF723
:1018E000DDFD8046104A114BFEF7F7FC064600224C
:1018F0000F4BFEF764FD0446FEF736FE8246504667
:10190000FEF706FE06460B4A0B4BFEF7E0FC804650
:1019100000220A4BFEF7E1FC0446FEF7E0FD00F072
:10192000FF0B5846BDE8F88FCDCCCCCCCCCC2340B7
:101930000000B0409A99999999990D40000069402A
:1019400000B587B00121480200F066F801210420AB
:1019500000F062F84FF4004000F042F800208DF8EB
:101960001B0003208DF81A000120ADF8180006A90D
:101970001948FFF75FFA0523012200211748FEF7F7
:1019800099FF00208DF8090004904FF46020039027
:101990000020019001208DF8140000208DF808002F
:1019A00001A90E48FEF75EFF01210C48FEF72EFF4D
:1019B0000A48FEF7DBFF00BF0848FEF749FF012891
:1019C000FAD00648FEF7E2FF00BF0448FEF729FF01
:1019D0000128FAD007B000BD0008014000240140F2
:1019E00001460020034A506820F4404008435060FC
:1019F000704700000010024029B1064AD269024334
:101A0000044BDA6104E0034AD2698243014BDA6194
:101A1000704700000010024029B1064A9269024353
:101A2000044B9A6104E0034A92698243014B9A6134
:101A30007047000000100240014908607047000034
:101A40004004424230B500210022002400232D4DE5
:101A50006D6805F00C0121B1042905D0082923D1B6
:101A600005E0294D056022E0274D05601FE0254D6A
:101A70006D6805F47012234D6D6805F480340225FD
:101A800005EB92421CB9214D554305600BE01D4DFD
:101A90006D6805F400351DB11C4D5543056002E02D
:101AA000194D5543056002E0174D056000BF00BFAA
:101AB000144D6D6805F0F0010909154D6B5C056862
:101AC000DD4045600F4D6D6805F4E061090A104D79
:101AD0006B5C4568DD4085600A4D6D6805F46051BA
:101AE000C90A0B4D6B5C4568DD40C560054D6D68EE
:101AF00005F44041890B074D6B5CC568B5FBF3F5F8
:101B0000056130BD0010024000127A0000093D005E
:101B1000000000201000002010B501460022002324
:101B200000204A11012A02D1094C236806E0022A4A
:101B300002D1074C236A01E0054C636A01F01F02E1
:101B4000012494401C400CB1012000E0002010BD95
:101B50000010024000210B4A11700A4A203A82F814
:101B60002010012802D0042808D103E00121054AF1
:101B7000117004E00521034A117000E000BF00BFAE
:101B800070470000201002400149086070470000C3
:101B90003C0442420249096A0143014A116270470A
:101BA000001002400348008840F0100001490880FE
:101BB0007047000004280040034800884FF6EF718A
:101BC000084001490880704704280040002103486C
:101BD0000188001F008841EA004070471C2800402F
:101BE0002DE9F0410546002700240026FFF7EEFF0F
:101BF00007463348B7FBF0F432480088A04237D09C
:101C000030490C8040F2B2760EE03046FFF7B1F971
:101C100030B1B4F5B77F02D3A4F5B77402E006E0A3
:101C2000A4F26D14701C86B2B4F5B67FEDD800BF77
:101C30002E80002615E02888FFF79BF930B1012E91
:101C400004D11D2C01D31D3C09E00CE01E48805D31
:101C5000A04203D81C48805D241A00E003E0701CF9
:101C600086B21C2CE7D200BF701CA870601CE87004
:101C70001348B7FBF0F100FB11744FF46160B4FB43
:101C8000F0F028714FF46160B4FBF0F100FB1140FB
:101C90003C21B0FBF1F068714FF46160B4FBF0F1EE
:101CA00000FB11403C21B0FBF1F201FB1200A871D6
:101CB0002888A0F2B274601CE871BDE8F0810000D1
:101CC0008051010044000020CC3200081CB50121E5
:101CD0004FF0C050FFF790FE0120FFF7F3FD042006
:101CE000FEF774FE45F2500188422DD0FEF766FEE5
:101CF0000120FFF72FFF00BF4120FFF70DFF002855
:101D0000FAD04FF48070FFF745FF0120FFF73CFF4A
:101D100000F08EF800F082F847F6FF7000F024F82B
:101D200000F07CF80020142111230922CDE90010D5
:101D3000082140F2E97000F027F845F25001042034
:101D4000FEF752FE00201CBD0120FCE700B5024654
:101D5000FFF728FF100C03490880091D0A80FFF7D0
:101D60002BFF00BD1828004000B50246FFF71AFF00
:101D7000C2F3034003490880091D0A80FFF71CFFD6
:101D800000BD0000082800402DE9F05F06460F4620
:101D900090469946DDF828B000BF002540F2B274A5
:101DA0000AE02046FFF7E5F810B105F5B77501E048
:101DB00005F26D15601C84B2B442F2DB00240BE026
:101DC0001448005D05443046FFF7D3F810B1012CEC
:101DD00000D16D1C601C84B2781EA042F0DCA8F11A
:101DE000010005440C486843C9EB4911C1EB0921C6
:101DF00000EB0110CBEB0B1100EB81010B9801EB19
:101E0000000A00F00BF85046FFF7A0FF00F006F8BC
:101E1000BDE8F09FCC3200088051010000BF0348AC
:101E2000008800F020000028F9D070470428004006
:101E3000074800884FF6F77108400549088000BF41
:101E40000348008800F008000028F9D0704700001F
:101E5000042800407047000000B587B001218804C5
:101E6000FFF7CAFD01210820FFF7D6FD18208DF8E5
:101E70001B004FF48060ADF8180003208DF81A00A5
:101E800006A92148FEF7D6FF04208DF81B0040026A
:101E9000ADF8180003208DF81A0006A91A48FEF7BD
:101EA000C9FF4FF4E13002900020ADF814000C207F
:101EB000ADF812000020ADF81000ADF80E00ADF83E
:101EC0000C0002A9114800F0A9FB012240F22551A3
:101ED0000E4800F07DFB4FF44070FFF7BBFB27205E
:101EE0008DF8040001208DF8070000208DF8050012
:101EF0008DF8060001A8FFF775FB0121034800F0EB
:101F000024FB07B000BD0000000C01400048004069
:101F100010B500F001F810BD0CB500200190009044
:101F20003348006840F480303149086000BF3048D1
:101F3000006800F4003000900198401C0190009867
:101F400018B90198B0F5A06FF1D12948006800F4E4
:101F5000003010B10120009001E0002000900098B6
:101F6000012843D12348006840F01000214908604F
:101F70000846006820F0030008600846006840F04A
:101F8000020008601A4840681949486008464068DD
:101F900048600846406840F48060486008464068F1
:101FA00020F47C1048600846406840F4E81048601F
:101FB0000846006840F08070086000BF0C48006868
:101FC00000F000700028F9D00948406820F00300B4
:101FD000074948600846406840F00200486000BF7A
:101FE0000348406800F00C000828F9D10CBD00003F
:101FF00000100240002002407047000010B5134856
:10200000006840F001001149086008464068104926
:1020100008400E494860084600680E4908400B49D0
:1020200008600846006820F4802008600846406880
:1020300020F4FE0048604FF41F008860FFF768FF3F
:102040004FF000600449086010BD0000001002401D
:102050000000FFF8FFFFF6FE08ED00E01FB50121CC
:10206000C802FFF7D9FC41F28730ADF8080041F60D
:102070001F40ADF804000020ADF80A00ADF80600DE
:102080008DF80C0001A90F4800F0CEF901210D4890
:1020900000F098F9012211460A4800F0B6F919201B
:1020A0008DF8000001208DF801008DF802008DF8F8
:1020B00003006846FFF796FA0121024800F088F90C
:1020C0001FBD0000002C014010B50121054800F0A3
:1020D0008BF9012805D1044908700121014800F05D
:1020E00074F910BD002C01401600002010B500212D
:1020F0004FF0804000F06CF910BD000010B50121D8
:10210000880700F071F9012808D10121800700F04B
:102110005CF903480088401C0149088010BD00009C
:10212000180000201FB501210846FFF765FC4FF09D
:10213000804000F073F90020ADF80A00ADF8060009
:1021400040F2E730ADF808004720ADF80400002069
:102150008DF80C0001A94FF0804000F065F90121D5
:10216000880700F02FF901221146900700F04DF981
:102170004FF4A060FFF76EFA1C208DF800000120DC
:102180008DF803008DF801008DF802006846FFF716
:1021900029FA0121880700F01BF91FBD10B50021A5
:1021A000014800F015F910BD0004004010B50121F0
:1021B000154800F019F9012824D114480078401C72
:1021C0001249087008460078142817D11048007882
:1021D00008B9012000E000200D4908700846007889
:1021E00018B15020FEF7ACFF05E00948007810B99F
:1021F0000020FEF7A5FF00200449087001210248D5
:1022000000F0E3F810BD0000000400404200002090
:10221000430000201FB501210220FFF7EDFB1B4802
:1022200000F0FCF80020ADF80A00ADF8060040F21E
:102230008330ADF808002720ADF8040000208DF8A9
:102240000C0001A9114800F0EFF801210F4800F03F
:10225000B9F8012211460D4800F0D7F84FF4A060FC
:10226000FFF7F8F91D208DF8000001208DF803001C
:1022700003208DF801008DF802006846FFF7B2F9DF
:102280000121024800F0A4F81FBD00000004004036
:1022900010B50021014800F09BF810BD0008004077
:1022A00038B501211C4800F09FF8012833D10121E5
:1022B000194800F08AF819480088401C174908801E
:1022C000084600883C2190FBF1F0C0F1130084B275
:1022D0001248008890FBF1F201FB1200C0F13B00B4
:1022E00085B223460EA206211048009500F08AFA16
:1022F0000E490FA000F076FA08480088B0F5966FF6
:1023000008DB00200549088001200D4908700DA058
:1023100000F068FA00BF38BD000800403800002017
:10232000253032753A253032750000003A00002021
:1023300074302E7478743D22257322FFFFFF000055
:1023400015000020706167652035FFFFFF00000069
:102350001FB501210420FFF74FFB194800F05EF87C
:102360000020ADF80A00ADF8060042F20F70ADF89B
:10237000080041F61F40ADF8040000208DF80C0065
:1023800001A90F4800F050F8012211460C4800F056
:102390003CF84FF4A060FFF75DF91E208DF80000B7
:1023A00001208DF8030003208DF801008DF8020054
:1023B0006846FFF717F90121014800F009F81FBD31
:1023C00000080040CA4302827047CA430282704735
:1023D00021B1028842F00102028004E002884FF637
:1023E000FE731A400280704730B502460020002379
:1023F0000024158A05EA0103958905EA010413B151
:102400000CB1012000E0002030BD1AB183890B43DC
:10241000838102E083898B438381704701894FF672
:10242000F872114001817047002202881D4B9842CA
:102430000ED01D4B98420BD0B0F1804F08D01B4BF3
:10244000984205D01A4B984202D01A4B984204D1B8
:102450004FF68F731A404B881A43174B984207D098
:10246000164B984204D04FF6FF431A40CB881A43CC
:1024700002808B8883850B8803850A4B98420BD09A
:10248000094B984208D00E4B984205D00D4B98420C
:1024900002D00D4B984201D10B7A0386012383822F
:1024A00070470000002C014000340140000400404F
:1024B00000080040000C00400010004000140040E4
:1024C00000400140004401400048014010B5FEF7C3
:1024D000C3FF10BD10B540F22551124800F04EF870
:1024E00001281DD10F4800F005F9C4B2012C04D019
:1024F000022C06D0032C0CD107E001200A490870F9
:1025000007E002200849087003E00320064908702C
:1025100000BF00BF40F22551024800F007F800BF9D
:1025200010BD0000004800403400002010B500221B
:10253000002340F66A14A14200D100BF0A12012410
:102540009440A3B2DC43048010BD21B1828942F4DF
:102550000052828104E082894DF6FF731A40828125
:10256000704702460020B1F5007F00D100BF1388FC
:102570000B400BB1012000E00020704770B502460F
:10258000002400230025002040F66A16B14200D145
:1025900000BFC1F3421501F01F03012606FA03F341
:1025A000012D02D19689334006E0022D02D1168A10
:1025B000334001E0968A33400C12012606FA04F4F7
:1025C0001688344013B10CB1012000E0002070BD2A
:1025D000F0B50346002400260025002040F66A17C7
:1025E000B94200D100BF1846C1F3421401F01F06E2
:1025F000012707FA06F5012C01D10C3004E0022C6A
:1026000001D1103000E014301AB107682F43076081
:1026100002E00768AF430760F0BD00002DE9F04716
:1026200086B005460E460024A24600BFA1460027FC
:10263000B08900B100BF2F462C8A4CF6FF700440D1
:10264000F08804432C82AC894EF6F3100440B08825
:1026500031890843718908430443AC81AC8A4FF641
:10266000FF400440B0890443AC8201A8FFF7EAF9B7
:102670001F48874202D1DDF810A001E0DDF80CA070
:10268000A88900F4004040B10AEBCA0000EB0A1030
:1026900031684900B0FBF1F807E00AEBCA0000EB33
:1026A0000A1031688900B0FBF1F86420B8FBF0F043
:1026B00004012009642101FB1089A88900F400406D
:1026C00040B1322000EBC900B0FBF1F000F0070090
:1026D000044308E0322000EB09106421B0FBF1F064
:1026E00000F00F0004432C8106B0BDE8F087000025
:1026F0000038014001468888C0F308007047C1F3E4
:1027000008028280704700BFFEE700002DE9F04715
:1027100004462046FDF7FCFE07463A460B460C48A9
:102720000C49FDF74CFE0546FDF7D9FE81464FEA00
:1027300009200949B0FBF1F000F0FF0AFEF7FAFEAC
:10274000504600F00BF8FEF7FFFEBDE8F0870000F2
:10275000F6285C8FC2F53840A086010010B504460B
:10276000FEF7E8FE8020FEF7ADFE2046FEF7AAFE4B
:10277000FEF7EAFE10BD00002DE9F04704462046B2
:10278000FDF7C6FE07463A460B460C480C49FDF7D6
:1027900016FE0546FDF7A3FE81464FEA09200949CA
:1027A000B0FBF1F000F0FF0AFEF7C9FE504600F062
:1027B0000BF8FEF7CEFEBDE8F0870000F6285C8F30
:1027C000C2F53840A086010010B50446FEF7B7FEFA
:1027D0008020FEF793FE2046FEF790FEFEF7B9FE3E
:1027E00010BD00000FB4054B10B503A9044A0298B0
:1027F00000F0F4F810BC5DF814FB0000F93000089C
:10280000480000200FB47CB50C0009AD01D0611E5A
:1028100000E00021CDE90001064B6A4629460898F0
:1028200000F0DCF8002C02D0009A002111707CBC72
:102830005DF814FBE330000802E008C8121F08C16D
:10284000002AFAD170477047002001E001C1121F31
:10285000002AFBD1704700002DE9FF5F82B0002104
:10286000DDE90430020DDDF840B0034318D044F632
:102870001050A2F2FF3242431514119801281FD0C4
:10288000A5EB0B00401C5FEA000A4FF000064E4F1C
:10289000DFF83891B046504615D5CAF1000413E070
:1028A000119801244AA3012801D16FEA0B01029873
:1028B000119AC0E90031C0E9024206B0BDE8F09FBC
:1028C000CBF10000DFE704460021404A491842EB03
:1028D0000450CDE9001012E0E00707D032463B4635
:1028E00040464946FDF7F9FC8046894632463B465C
:1028F00010461946FDF7F1FC06460F466410002C01
:10290000EAD1DDE90401DDE90023BAF1000F06DABE
:10291000FDF7E3FC42464B46FDF7DFFC05E0FDF723
:102920004EFD42464B46FDF74AFD04460E46002248
:10293000284BFDF701FE03D84FF0FF30014607E0BA
:102940000022254B20463146FDF720FCFDF734FFE1
:10295000102409E0002C0ADB0A220023FDF736FED2
:10296000039B30321A55641E50EA0102F2D1641CF6
:10297000039AC4F111031444119A012A03D00122CD
:1029800008430DD10AE0084304D000204FF0110B9A
:10299000119072E7A3EB0B056D1E0DE05B4504DDA6
:1029A0004FF0000205F1010504E003DA4FF00002E8
:1029B000A5F10105002AECD002981199C0E9023175
:1029C000C0E9004579E70000000014400000F03F36
:1029D000300000000000F0430000E03F2DE9FF4F11
:1029E00095B09A46884606460025EEE1252877D11F
:1029F00000242746F94A0121039400E0044316F815
:102A0000013F203B01FA03F01042F7D130782A2829
:102A100011D06FF02F033078A0F13002092A16D8B8
:102A2000039A44F0020402EB820203EB42021044D8
:102A3000761C0390EFE758F8042B0392002A03DA80
:102A4000504244F40054039044F00204761C307861
:102A50002E2816D116F8010F44F004042A280DD0B0
:102A60006FF02F023078A0F13003092B09D807EB63
:102A7000870302EB4303C718761CF3E758F8047B7F
:102A8000761C30786C280FD006DC4C2817D06828CC
:102A90000DD06A2814D104E0742810D07A280FD100
:102AA0000DE044F400140AE044F4801401E044F41E
:102AB00040147278824202D104F58014761C761C90
:102AC000307866280BD013DC582877D009DC002832
:102AD00075D04528F6D04628F4D047281AD193E17E
:102AE00018E0632835D0642879D0652812D18BE1AD
:102AF000702873D008DC6728F1D069286FD06E2861
:102B00000DD06F2806D1ACE073282CD0752874D076
:102B1000782853D05246179990476D1C54E1C4F35E
:102B20000250022809D003280DD0D8F8001004283C
:102B30000DD00D6008F1040846E1D8F80010EA173E
:102B4000C1E90052F6E7D8F800100D80F2E70D70E9
:102B5000F0E718F8041B8DF8001000208DF8010034
:102B6000EB46012003E058F804BB4FF0FF3061074B
:102B70004FF0000102D40DE009F101018946B9428C
:102B80000FDA8145F8DB1BF809100029F4D108E0C1
:102B900009F1010189468142FADB1BF8091000297D
:102BA000F6D103985346A0EB090721463846179AF9
:102BB00000F080FA284400EB090507E044E008E152
:102BC0000DE01BF8010B524617999047B9F1010926
:102BD000F7D2534621463846179AF2E039E00A21E7
:102BE000C4F302524FF0000B0091022A06D058F8AD
:102BF000040BC117032A09D00AE023E008F10700FB
:102C000020F00702F2E80201904605E000B2C11789
:102C1000042A01D140B2C117002906DA0A46002170
:102C2000404261EB02012D2202E0220504D52B2255
:102C30008DF80420012203E0E20701D02022F7E70B
:102C4000914657E00A2100E010214FF0000B00915F
:102C50000BE010214FF0000B44F004040827009112
:102C600003E008204FF0000B0090C4F30252022A48
:102C700005D058F8040B0021032A08D008E008F119
:102C8000070020F00702F2E80201904603E080B25C
:102C9000042A00D1C0B24FF0000922072AD53278A9
:102CA000702A07D0DDF800C08CF0100C5CEA0B0C29
:102CB00005D00EE040228DF80420012208E050EA01
:102CC000010306D030238DF804308DF80520022250
:102CD0009146009B83F0080353EA0B030AD150EAA4
:102CE000010201D1620705D530228DF804204FF092
:102CF00001097F1E3278582A04D039A20C920CAAFE
:102D000002920BE03BA2F9E75B46009AFDF75EFCFE
:102D10000C9B9B5C029A521E0292137050EA0102B5
:102D2000F2D1029804A9081A00F1200B600702D51D
:102D300024F4803400E001275F4502DDA7EB0B009F
:102D400000E0002000EB0B01009003984944401A7A
:102D50000390E00306D453462146179A039800F0E7
:102D6000A9F90544002706E001A85246C05D17995D
:102D700090476D1C7F1C4F45F6DBE0030CD5534696
:102D80002146179A039800F095F9054404E0302095
:102D90005246179990476D1C0099481E00900029D3
:102DA000F5DC08E00298029952460078491C02912D
:102DB000179990476D1CBBF10001ABF1010BF1DCE1
:102DC0005BE100F065F90544761C307800287FF45B
:102DD0000DAE19B02846BDE8F08F000009280100AB
:102DE0003031323334353637383961626364656681
:102DF0000000000030313233343536373839414243
:102E00004344454600000000600700D4062708F14F
:102E1000070020F00700F0E80223804603F0004C92
:102E20005FEA0C0001D097A009E0200501D596A02B
:102E300005E0E00701D095A001E0AFF24C0013904F
:102E4000307823F0004365280CD006DC452809D0F3
:102E500046281DD047287FD13BE0662818D0672838
:102E60007AD136E00021112F01DB112000E0781C1F
:102E7000CDE9000104A90CA8FFF7EEFCDDE90D0186
:102E80000C9A4FF0000B07F10109109200914EE0EF
:102E90004FF000400097CDE9011004A90CA8FFF7FE
:102EA000DBFCDDE90D020C9B0F994FF0000B914606
:102EB0001093009211B9791C00EB0109B7EB0900DE
:102EC00003D4C0F1FF3B07F10109A9EB0700019012
:102ED00042E0012F00DA01270021112F01DD11202E
:102EE00000E03846CDE9000104A90CA8FFF7B4FCC6
:102EF000DDE90D010C9A00914FF0000BB9461092DC
:102F000021070FD4009A4A4503DA914601E0A9F15E
:102F10000109B9F1010F05DD109AA9F10101515C18
:102F20003029F4D0B84202DA10F1040F03DA01219B
:102F3000CDE9011010E0002803DC8344A9EB000177
:102F400002E0411C494500DD8946A0EB0B00401C16
:102F500001904FF000400290200705D401984845A9
:102F600002DB4FF0FF30019000208DF84B000298FB
:102F70000DF14B07B0F1004F25D002200C902B2013
:102F80000D90029800280CDA404202902D200D90FE
:102F900007E00A210298FDF703FB3031029007F8A1
:102FA000011D0C99481E0C900029F2DC02980028A3
:102FB000EFD1791E0D980870307800F0200040F0B5
:102FC000450007F8020D11A8C01BC01D0290139800
:102FD000007800B1012000EB0901019801EBE071DC
:102FE000029801440398401A401E0390E00306D45F
:102FF00053462146179A039800F05CF8054413984D
:10300000007818B15246179990476D1CE00323D5FC
:1030100053462146179A039800F04CF805441BE0EC
:10302000BBF1000F07DB0098584504DD1098179995
:1030300010F80B0001E01799302052469047019894
:103040000BF1010B401E05F10105019004D12E206A
:103050005246179990476D1CB9F10001A9F1010979
:10306000DEDC05E017F8010B5246179990476D1CFE
:103070000299481E02900029F4DC53462146179A13
:1030800003989EE62D0000002B00000020000000A9
:103090002DE9F041044600251E461746880404D455
:1030A00005E039462020B0476D1C641EF9D528463E
:1030B000BDE8F0812DE9F041044600251E4690460A
:1030C000C80301D5302700E02027880404D505E097
:1030D00041463846B0476D1C641EF9D52846BDE808
:1030E000F0814A68002A06D00A68531C0B601070F1
:1030F0004868401E4860704770B504460D46E1B20E
:103100000548FFF7FCFA00BF80210348FFF729FAC2
:103110000028F9D0204670BD0048004088B0FEF776
:103120006DFFFEF7D3FDFEF797FEFDF73FFFFDF7BE
:1031300069FCFEF715FBFEF703FCFDF7ADFCFFF79E
:10314000C5F90120FDF7F3FC4FF400613748FDF7A6
:1031500007FF0120FDF7DFFCFEF780FF65E0344844
:10316000007801281ED1002031490870FFF716F8B9
:10317000FFF78EF80020FDF7E3FF2E48FFF7C6FAB1
:103180002C48FFF7F9FA00240AE04FF4FA71C8005E
:10319000FDF752FC4FF4FA70FDF7BDFC601CC4B2A1
:1031A000032CF2DB2448007801283ED1002022497C
:1031B000087006A8FEF714FDFEF78CFB04469DF888
:1031C0001E009DF81D109DF81C209DF81B30CDE9B8
:1031D0000132CDE903109DF81A000090BDF81830B7
:1031E00016A220211D48FFF70DFB1C491CA0FFF76C
:1031F000F9FA4B2C03DB1EA0FFF7F4FA14E0322C93
:1032000003DB1FA0FFF7EEFA0EE0192C03DB20A072
:10321000FFF7E8FA08E00A2C03DB21A0FFF7E2FA47
:1032200002E023A0FFF7DEFA00BF98E7001001409C
:103230001500002052499D391600002025303464C5
:103240002F253032642F2530326420253032643A05
:10325000253032643A253032640000004C000020F2
:103260007661302E7478743D22257322FFFFFF00B3
:103270007661312E76616C3D36FFFFFF0000000065
:103280007661312E76616C3D35FFFFFF0000000056
:103290007661312E76616C3D34FFFFFF0000000047
:1032A0007661312E76616C3D32FFFFFF0000000039
:1032B0007661312E76616C3D33FFFFFF0000000028
:1032C0000003030601040602050003051F1C1F1E60
:1032D0001F1E1F1F1E1F1E1FF832000800000020A7
:1032E0004C00000038280008443300084C0000203F
:1032F0002408000048280008000000000102030420
:103300000102030406070809020406080000000081
:10331000000000006F12033A00000500005000009A
:103320000000000100010000000001050000030092
:10333000010000000000000000000000000000008C
:043340000000000089
:04000005080000ED02
:00000001FF
